:040800000BEF04F006
:100808004D82FACF05F0FBCF06F071ED14F032EF10
:1008180014F00041542B43574A41503D2242617421
:1008280043617665726E61222C22323364666431CC
:1008380062363462220D0A0041542B434950534515
:10084800525645523D312C343030300D0A00415457
:100858002B43574D4F44453D310D0A0041542B431E
:1008680049504D55583D310D0A0041542B434950CC
:1008780053454E443D302C006C696E6B20697320E3
:100888006E6F740041542B5253540D0A004F4B00A5
:01089800005F
:10089A0088EC15F0EDEC15F02D0E156EA60E94EC05
:1008AA0012F014EC10F0000E0201396F000E020172
:1008BA003A6F400E02013B6F000E02013C6F800E40
:1008CA0002013D6F3F0E02013E6F000E01011B6FD8
:1008DA00FE0E01011C6FC20E01011D6F000E010107
:1008EA00186FFE0E0101196F420E01011A6F000EF8
:1008FA000101006F800E0101016F3F0E0101026FBD
:10090A00000E0101036F000E0101046F000E0101C8
:10091A00056F000E0101066F000E0101076F000E40
:10092A000101086F000E0101156F800E0101166F9B
:10093A003F0E0101176F000E0101406FFE0E01010B
:10094A00416FC20E0101426F000E01013D6FFE0EA2
:10095A0001013E6F420E01013F6F000E0101256F3A
:10096A00800E0101266F3F0E0101276F000E010163
:10097A00286F000E0101296F000E01012A6F000E77
:10098A0001012B6F000E01012C6F000E01012D6F6A
:10099A00000E01013A6F800E01013B6F3F0E01010B
:1009AA003C6F000E0101656FFE0E0101666FC20EFB
:1009BA000101676F000E0101626FFE0E0101636F94
:1009CA00420E0101646F000E01014A6F800E01019F
:1009DA004B6F3F0E01014C6F000E01014D6F000E6F
:1009EA0001014E6F000E01014F6F000E0101506FA1
:1009FA00000E0101516F000E0101526F000E01013C
:100A0A005F6F800E0101606F3F0E0101616F000E82
:100A1A0001018A6FFE0E01018B6FC20E01018C6FFC
:100A2A00000E0101876FFE0E0101886F420E01015F
:100A3A00896F000E01016F6F800E0101706F3F0E0A
:100A4A000101716F000E0101726F000E0101736FD7
:100A5A00000E0101746F000E0101756F000E010195
:100A6A00766F000E0101776F000E0101846F800E10
:100A7A000101856F3F0E0101866F010E0201326F7F
:100A8A00010E0201486FB80E0201486501D011D06B
:100A9A0048C23BF048C23CF048C23EF048C23DF072
:100AAA00000E146E5A0E136EB9EC15F00201482BA3
:100ABA00EAD776EC08F0000E0001D76FA00E00010D
:100ACA00D86F400E0001D96F9CC0DAF09DC0DBF0F0
:100ADA009EC0DCF0000E0001DD6F3DEC0CF01EC183
:100AEA00CBF01FC1CCF020C1CDF0000E0001CE6FBB
:100AFA00390E0001CF6F440E0001D06FE0EC0EF00A
:100B0A00CBC03FF2CCC040F2CDC041F2000E000192
:100B1A00D76F000E0001D86F000E0001D96F7BC09D
:100B2A00DAF07CC0DBF07DC0DCF0010E0001DD6F85
:100B3A003DEC0CF043C133F244C134F245C135F205
:100B4A00000E0001D76F000E0001D86F000E0001E1
:100B5A00D96F7EC0DAF07FC0DBF080C0DCF0020E15
:100B6A000001DD6F3DEC0CF068C136F269C137F265
:100B7A006AC138F2000E0001D76F000E0001D86F6B
:100B8A00000E0001D96F81C0DAF082C0DBF083C0A9
:100B9A00DCF0030E0001DD6F3DEC0CF08DC142F27A
:100BAA008EC143F28FC144F2000E266E800E276E6C
:100BBA00400E286E3CC223F03DC224F03EC225F00E
:100BCA001AEC12F023C035F024C036F025C037F0F5
:100BDA0042C232F043C233F044C234F01EEC11F088
:100BEA0032C0C8F033C0C9F034C0CAF0A1EC15F065
:100BFA00C8C0CEF0C9C0CFF0CAC0D0F0000E356E62
:100C0A00800E366E400E376E3FC232F040C233F06D
:100C1A0041C234F01EEC11F032C0CBF033C0CCF03C
:100C2A0034C0CDF0E0EC0EF0CBC045F2CCC046F2B9
:100C3A00CDC047F245C2CBF046C2CCF047C2CDF098
:100C4A00000E266E000E276E400E286E39C223F063
:100C5A003AC224F03BC225F01AEC12F023C035F058
:100C6A0024C036F025C037F036C232F037C233F02E
:100C7A0038C234F01EEC11F032C0C8F033C0C9F0EB
:100C8A0034C0CAF0A1EC15F0C8C0CEF0C9C0CFF08C
:100C9A00CAC0D0F0E0EC0EF0CBC049F2CCC04AF2A8
:100CAA00CDC04BF202014BAF09D0000E0201496FD1
:100CBA00000E02014A6F000E02014B6F49C213F087
:100CCA004AC214F04BC215F0A0EC11F013503B6E5F
:100CDA00000E266E800E276E400E286E3CC223F050
:100CEA003DC224F03EC225F01AEC12F023C035F0C2
:100CFA0024C036F025C037F042C232F043C233F086
:100D0A0044C234F01EEC11F032C0CEF033C0CFF042
:100D1A0034C0D0F0000E356E800E366E400E376E3F
:100D2A003FC232F040C233F041C234F01EEC11F03F
:100D3A0032C0CBF033C0CCF034C0CDF0E0EC0EF0D2
:100D4A00CBC045F2CCC046F2CDC047F245C2CBF08B
:100D5A0046C2CCF047C2CDF0000E266E000E276EBA
:100D6A00400E286E39C223F03AC224F03BC225F065
:100D7A001AEC12F023C035F024C036F025C037F043
:100D8A0033C232F034C233F035C234F01EEC11F003
:100D9A0032C0C8F033C0C9F034C0CAF0A1EC15F0B3
:100DAA00C8C0CEF0C9C0CFF0CAC0D0F0E0EC0EF097
:100DBA00CBC049F2CCC04AF2CDC04BF202014BAFD4
:100DCA0009D0000E0201496F000E02014A6F000E9F
:100DDA0002014B6F49C213F04AC214F04BC215F01C
:100DEA00A0EC11F013503C6E000E266E000E276E1A
:100DFA00400E286E39C223F03AC224F03BC225F0D5
:100E0A001AEC12F023C035F024C036F025C037F0B2
:100E1A0036C232F037C233F038C234F01EEC11F069
:100E2A0032C0CEF033C0CFF034C0D0F0000E356EF1
:100E3A00800E366E400E376E3FC232F040C233F03B
:100E4A0041C234F01EEC11F032C0CBF033C0CCF00A
:100E5A0034C0CDF0E0EC0EF0CBC045F2CCC046F287
:100E6A00CDC047F245C2CBF046C2CCF047C2CDF066
:100E7A00000E266E800E276E400E286E3CC223F0AE
:100E8A003DC224F03EC225F01AEC12F023C035F020
:100E9A0024C036F025C037F042C232F043C233F0E4
:100EAA0044C234F01EEC11F032C0C8F033C0C9F0AD
:100EBA0034C0CAF0A1EC15F0C8C0CEF0C9C0CFF05A
:100ECA00CAC0D0F0E0EC0EF0CBC049F2CCC04AF276
:100EDA00CDC04BF202014BAF09D0000E0201496F9F
:100EEA00000E02014A6F000E02014B6F49C213F055
:100EFA004AC214F04BC215F0A0EC11F013503E6E2A
:100F0A00000E266E000E276E400E286E39C223F0A0
:100F1A003AC224F03BC225F01AEC12F023C035F095
:100F2A0024C036F025C037F033C232F034C233F071
:100F3A0035C234F01EEC11F032C0CEF033C0CFF01F
:100F4A0034C0D0F0000E356E800E366E400E376E0D
:100F5A003FC232F040C233F041C234F01EEC11F00D
:100F6A0032C0CBF033C0CCF034C0CDF0E0EC0EF0A0
:100F7A00CBC045F2CCC046F2CDC047F245C2CBF059
:100F8A0046C2CCF047C2CDF0000E266E800E276E08
:100F9A00400E286E3CC223F03DC224F03EC225F02A
:100FAA001AEC12F023C035F024C036F025C037F011
:100FBA0042C232F043C233F044C234F01EEC11F0A4
:100FCA0032C0CEF033C0CFF034C0D0F0E0EC0EF037
:100FDA00CBC049F2CCC04AF2CDC04BF202014BAFB2
:100FEA0009D0000E0201496F000E02014A6F000E7D
:100FFA0002014B6F49C213F04AC214F04BC215F0FA
:10100A00A0EC11F013503D6E9C0E0001E36FD70E59
:10101A00E82EFED7E32FFCD700F09C0E0001E36F09
:10102A00D70EE82EFED7E32FFCD700F09C0E000166
:10103A00E36FD70EE82EFED7E32FFCD700F09C0E05
:10104A000001E36FD70EE82EFED7E32FFCD700F09E
:10105A009C0E0001E36FD70EE82EFED7E32FFCD7D4
:10106A0000F09C0E0001E36FD70EE82EFED7E32FA7
:10107A00FCD700F09C0E0001E36FD70EE82EFED7D6
:10108A00E32FFCD700F09C0E0001E36FD70EE82E89
:10109A00FED7E32FFCD700F09C0E0001E36FD70EBA
:1010AA00E82EFED7E32FFCD700F09C0E0001E36F79
:1010BA00D70EE82EFED7E32FFCD700F09C0E0001D6
:1010CA00E36FD70EE82EFED7E32FFCD700F09C0E75
:1010DA000001E36FD70EE82EFED7E32FFCD700F00E
:1010EA00E8D4E7C026F0E8C027F0E9C028F072C0CB
:1010FA00C8F073C0C9F074C0CAF0A1EC15F0C8C03A
:10110A00CEF0C9C0CFF0CAC0D0F0010E1A6E000EE0
:10111A00196E320E4AEC15F00001D76FD86B330EF8
:10112A004AEC15F00001D96F0001D9510001D72707
:10113A00000ED823D7C0D8F00001D76BD7C017F05C
:10114A00D8C018F0F0EC13F017C01FF018C020F048
:10115A006CEC15F01FC0CBF020C0CCF021C0CDF054
:10116A00E0EC0EF0CBC023F0CCC024F0CDC025F0CB
:10117A001AEC12F023C0DAF024C0DBF025C0DCF050
:10118A0072C0CBF073C0CCF074C0CDF0DAC0CEF030
:10119A00DBC0CFF0DCC0D0F0E0EC0EF0CBC072F0D8
:1011AA00CCC073F0CDC074F0E7C026F0E8C027F0D9
:1011BA00E9C028F075C0C8F076C0C9F077C0CAF097
:1011CA00A1EC15F0C8C0CEF0C9C0CFF0CAC0D0F0AB
:1011DA00010E1A6E000E196E340E4AEC15F000015B
:1011EA00D76FD86B350E4AEC15F00001D96F0001A4
:1011FA00D9510001D727000ED823D7C0D8F0000153
:10120A00D76BD7C017F0D8C018F0F0EC13F017C09E
:10121A001FF018C020F06CEC15F01FC0CBF020C0F6
:10122A00CCF021C0CDF0E0EC0EF0CBC023F0CCC066
:10123A0024F0CDC025F01AEC12F023C0DAF024C055
:10124A00DBF025C0DCF075C0CBF076C0CCF077C0FF
:10125A00CDF0DAC0CEF0DBC0CFF0DCC0D0F0E0ECED
:10126A000EF0CBC075F0CCC076F0CDC077F0E7C0F9
:10127A0026F0E8C027F0E9C028F078C0C8F079C0A5
:10128A00C9F07AC0CAF0A1EC15F0C8C0CEF0C9C046
:10129A00CFF0CAC0D0F0010E1A6E000E196E360ECB
:1012AA004AEC15F00001D76FD86B370E4AEC15F0EF
:1012BA000001D96F0001D9510001D727000ED823A8
:1012CA00D7C0D8F00001D76BD7C017F0D8C018F034
:1012DA00F0EC13F017C01FF018C020F06CEC15F0FA
:1012EA001FC0CBF020C0CCF021C0CDF0E0EC0EF056
:1012FA00CBC023F0CCC024F0CDC025F01AEC12F0FC
:10130A0023C0DAF024C0DBF025C0DCF078C0CBF0D3
:10131A0079C0CCF07AC0CDF0DAC0CEF0DBC0CFF025
:10132A00DCC0D0F0E0EC0EF0CBC078F0CCC079F0A5
:10133A00CDC07AF072C0C8F073C0C9F074C0CAF0E8
:10134A00A1EC15F0C8C0CBF0C9C0CCF0CAC0CDF032
:10135A0060C0CEF061C0CFF062C0D0F0E0EC0EF019
:10136A00CBC060F0CCC061F0CDC062F075C0C8F0EF
:10137A0076C0C9F077C0CAF0A1EC15F0C8C0CBF0AE
:10138A00C9C0CCF0CAC0CDF063C0CEF064C0CFF003
:10139A0065C0D0F0E0EC0EF0CBC063F0CCC064F0D6
:1013AA00CDC065F078C0C8F079C0C9F07AC0CAF07B
:1013BA00A1EC15F0C8C0CBF0C9C0CCF0CAC0CDF0C2
:1013CA0066C0CEF067C0CFF068C0D0F0E0EC0EF097
:1013DA00CBC066F0CCC067F0CDC068F09FC0CBF040
:1013EA00A0C0CCF0A1C0CDF0EAC026F0EBC027F037
:1013FA00ECC028F060C023F061C024F062C025F080
:10140A001AEC12F023C0CEF024C0CFF025C0D0F0E1
:10141A00E0EC0EF0CBC09FF0CCC0A0F0CDC0A1F0A4
:10142A00A2C0CBF0A3C0CCF0A4C0CDF0EAC026F095
:10143A00EBC027F0ECC028F063C023F064C024F0AE
:10144A0065C025F01AEC12F023C0CEF024C0CFF00C
:10145A0025C0D0F0E0EC0EF0CBC0A2F0CCC0A3F0D7
:10146A00CDC0A4F0A5C0CBF0A6C0CCF0A7C0CDF0EB
:10147A00EAC026F0EBC027F0ECC028F066C023F0E3
:10148A0067C024F068C025F01AEC12F023C0CEF031
:10149A0024C0CFF025C0D0F0E0EC0EF0CBC0A5F010
:1014AA00CCC0A6F0CDC0A7F096C0CBF097C0CCF0C8
:1014BA0098C0CDF0EAC026F0EBC027F0ECC028F0C7
:1014CA009FC023F0A0C024F0A1C025F01AEC12F0AE
:1014DA0023C0CEF024C0CFF025C0D0F0E0EC0EF04F
:1014EA00CBC096F0CCC097F0CDC098F099C0CBF0A5
:1014FA009AC0CCF09BC0CDF0EAC026F0EBC027F032
:10150A00ECC028F0A2C023F0A3C024F0A4C025F0A8
:10151A001AEC12F023C0CEF024C0CFF025C0D0F0D0
:10152A00E0EC0EF0CBC099F0CCC09AF0CDC09BF0A5
:10153A009CC0CBF09DC0CCF09EC0CDF0EAC026F096
:10154A00EBC027F0ECC028F0A5C023F0A6C024F019
:10155A00A7C025F01AEC12F023C0CEF024C0CFF0B9
:10156A0025C0D0F0E0EC0EF0CBC09CF0CCC09DF0D2
:10157A00CDC09EF0E7C026F0E8C027F0E9C028F009
:10158A008DC0C8F08EC0C9F08FC0CAF0A1EC15F0AA
:10159A00C8C0CEF0C9C0CFF0CAC0D0F0010E1A6ED2
:1015AA00000E196E280E28EC15F00001D76FD86BC3
:1015BA00290E28EC15F00001D96F0001D95100015C
:1015CA00D727000ED823D7C0D8F00001D76BD7C0D1
:1015DA0017F0D8C018F0F0EC13F017C01FF018C0BD
:1015EA0020F06CEC15F01FC0CBF020C0CCF021C06D
:1015FA00CDF0E0EC0EF0CBC023F0CCC024F0CDC08F
:10160A0025F01AEC12F023C0DAF024C0DBF025C072
:10161A00DCF08DC0CBF08EC0CCF08FC0CDF0DAC03C
:10162A00CEF0DBC0CFF0DCC0D0F0E0EC0EF0CBC0E7
:10163A008DF0CCC08EF0CDC08FF0E7C026F0E8C0A8
:10164A0027F0E9C028F090C0C8F091C0C9F092C054
:10165A00CAF0A1EC15F0C8C0CEF0C9C0CFF0CAC01C
:10166A00D0F0010E1A6E000E196E2A0E28EC15F033
:10167A000001D76FD86B2B0E28EC15F00001D96F3B
:10168A000001D9510001D727000ED823D7C0D8F0BE
:10169A000001D76BD7C017F0D8C018F0F0EC13F0E0
:1016AA0017C01FF018C020F06CEC15F01FC0CBF06B
:1016BA0020C0CCF021C0CDF0E0EC0EF0CBC023F07E
:1016CA00CCC024F0CDC025F01AEC12F023C0DAF019
:1016DA0024C0DBF025C0DCF090C0CBF091C0CCF088
:1016EA0092C0CDF0DAC0CEF0DBC0CFF0DCC0D0F0D3
:1016FA00E0EC0EF0CBC090F0CCC091F0CDC092F0EF
:10170A00E7C026F0E8C027F0E9C028F093C0C8F087
:10171A0094C0C9F095C0CAF0A1EC15F0C8C0CEF0CB
:10172A00C9C0CFF0CAC0D0F0010E1A6E000E196EF1
:10173A002C0E28EC15F00001D76FD86B2D0E28EC73
:10174A0015F00001D96F0001D9510001D727000E09
:10175A00D823D7C0D8F00001D76BD7C017F0D8C0AC
:10176A0018F0F0EC13F017C01FF018C020F06CEC62
:10177A0015F01FC0CBF020C0CCF021C0CDF0E0ECBA
:10178A000EF0CBC023F0CCC024F0CDC025F01AEC6B
:10179A0012F023C0DAF024C0DBF025C0DCF093C0DD
:1017AA00CBF094C0CCF095C0CDF0DAC0CEF0DBC05F
:1017BA00CFF0DCC0D0F0E0EC0EF0CBC093F0CCC0A0
:1017CA0094F0CDC095F08DC0C8F08EC0C9F08FC01E
:1017DA00CAF0A1EC15F0C8C0CBF0C9C0CCF0CAC0A1
:1017EA00CDF07BC0CEF07CC0CFF07DC0D0F0E0EC75
:1017FA000EF0CBC07BF0CCC07CF0CDC07DF090C0A9
:10180A00C8F091C0C9F092C0CAF0A1EC15F0C8C0E6
:10181A00CBF0C9C0CCF0CAC0CDF07EC0CEF07FC03C
:10182A00CFF080C0D0F0E0EC0EF0CBC07EF0CCC0A0
:10183A007FF0CDC080F093C0C8F094C0C9F095C0C5
:10184A00CAF0A1EC15F0C8C0CBF0C9C0CCF0CAC030
:10185A00CDF081C0CEF082C0CFF083C0D0F0E0ECF2
:10186A000EF0CBC081F0CCC082F0CDC083F0120064
:10187A00DAC0C8F0DBC0C9F0DCC0CAF0A1EC15F0D0
:10188A00C8C0CBF0C9C0CCF0CAC0CDF0D7C0CEF02A
:10189A00D8C0CFF0D9C0D0F0E0EC0EF00001DD5195
:1018AA00250D090EF326000EF422000EF324D96E3C
:1018BA00010EF420DA6ECBC0DEFFCCC0DEFFCDC055
:1018CA00DEFF0001DD51250D090EF326000EF4227C
:1018DA00000EF324D96E010EF420DA6EDECFCEF0BC
:1018EA00DECFCFF0DDCFD0F00001DD51250D120E95
:1018FA00F326000EF422000EF324D96E010EF42012
:10190A00DA6EDECFC8F0DECFC9F0DDCFCAF0A1ECC7
:10191A0015F0C8C0CBF0C9C0CCF0CAC0CDF0E0EC1D
:10192A000EF0CBC032F0CCC033F0CDC034F00001A1
:10193A00DD51250D150EF326000EF422000EF324B8
:10194A00D96E010EF420DA6EDECF35F0DECF36F036
:10195A00DDCF37F01EEC11F00001DD51250D0C0E24
:10196A00F326000EF422000EF324D96E010EF420A1
:10197A00DA6E32C0DEFF33C0DEFF34C0DEFF0001A4
:10198A00DD51250D090EF326000EF422000EF32474
:10199A00D96E010EF420DA6E0001DD51250D120E0A
:1019AA00F326000EF422000EF324E16E010EF42059
:1019BA00E26EDECFE6FFDECFE6FFDECFE6FF000116
:1019CA00DD51250D210EF326000EF422000EF3241C
:1019DA00D96E010EF420DA6EDE50DE10D8A467D07C
:1019EA000001DD51250D230EF326000EF422000E10
:1019FA00F324D96E010EF420DA6EDE50DE10D8A47C
:101A0A0056D00001DD51250D0F0EF326000EF422EB
:101A1A00000EF324D96E010EF420DA6EDECFCBF07D
:101A2A00DECFCCF0DDCFCDF00001DD51250D150E56
:101A3A00F326000EF422000EF324D96E010EF420D0
:101A4A00DA6EDECF26F0DECF27F0DDCF28F00001F8
:101A5A00DD51250D090EF326000EF422000EF324A3
:101A6A00D96E010EF420DA6EDECF23F0DECF24F039
:101A7A00DDCF25F01AEC12F023C0CEF024C0CFF04F
:101A8A0025C0D0F0E0EC0EF00001DD51250D0F0E5F
:101A9A00F326000EF422000EF324D96E010EF42070
:101AAA00DA6ECBC0DEFFCCC0DEFFCDC0DEFF0001A8
:101ABA00DD51250D0F0EF326000EF422000EF3243D
:101ACA00D96E010EF420DA6EDECF26F0DECF27F0D3
:101ADA00DDCF28F00001DD51250D030EF326000E9F
:101AEA00F422000EF324D96E010EF420DA6EDECF52
:101AFA0023F0DECF24F0DDCF25F01AEC12F023C05C
:101B0A00CEF024C0CFF025C0D0F00001DD51250D64
:101B1A00090EF326000EF422000EF324D96E010EEC
:101B2A00F420DA6EDECF26F0DECF27F0DDCF28F004
:101B3A000001DD51250D000EF324D96E010EF420AB
:101B4A00DA6EDECF23F0DECF24F0DDCF25F01AECFB
:101B5A0012F023C0CBF024C0CCF025C0CDF0E0ECCD
:101B6A000EF0CBC0E0F0CCC0E1F0CDC0E2F0E0C0B6
:101B7A00CBF0E1C0CCF0E2C0CDF00001DD51250D83
:101B8A000C0EF326000EF422000EF324D96E010E79
:101B9A00F420DA6EDECF26F0DECF27F0DDCF28F094
:101BAA000001DD51250D060EF326000EF422000E6B
:101BBA00F324D96E010EF420DA6EDECF23F0DECFE5
:101BCA0024F0DDCF25F01AEC12F023C0CEF024C0A9
:101BDA00CFF025C0D0F0E0EC0EF00001DD51250D6C
:101BEA001E0EF326000EF422000EF324D96E010E07
:101BFA00F420DA6ECBC0DEFFCCC0DEFFCDC0DEFF44
:101C0A000001DD51250D1E0EF326000EF422000EF2
:101C1A00F324D96E010EF420DA6EDECF13F0DECF94
:101C2A0014F0DDCF15F00001DD51250D180EF32655
:101C3A00000EF422000EF324D96E010EF420DA6E9F
:101C4A00DECF16F0DECF17F0DDCF18F0A8EC13F0D8
:101C5A00D8A032D00001DD51250D210EF326000E49
:101C6A00F422000EF324D96E010EF420DA6E010E6E
:101C7A00DE6E000EDD6E0001DD51250D180EF32615
:101C8A00000EF422000EF324D96E010EF420DA6E4F
:101C9A000001DD51250D1E0EF326000EF422000E62
:101CAA00F324E16E010EF420E26EDECFE6FFDECF12
:101CBA00E6FFDECFE6FF11D00001DD51250D210E32
:101CCA00F326000EF422000EF324D96E010EF4203E
:101CDA00DA6E000EDE6E000EDD6E0001DD51250D9E
:101CEA001B0EF326000EF422000EF324D96E010E09
:101CFA00F420DA6EDECF13F0DECF14F0DDCF15F06C
:101D0A000001DD51250D1E0EF326000EF422000EF1
:101D1A00F324D96E010EF420DA6EDECF16F0DECF90
:101D2A0017F0DDCF18F0A8EC13F0D8A032D00001DC
:101D3A00DD51250D230EF326000EF422000EF324A6
:101D4A00D96E010EF420DA6E010EDE6E000EDD6E23
:101D5A000001DD51250D1B0EF326000EF422000EA4
:101D6A00F324D96E010EF420DA6E0001DD51250D3F
:101D7A001E0EF326000EF422000EF324E16E010E6D
:101D8A00F420E26EDECFE6FFDECFE6FFDECFE6FF2F
:101D9A0012000001DD51250D230EF326000EF42258
:101DAA00000EF324D96E010EF420DA6E000EDE6EF8
:101DBA00000EDD6E1200CDC0D1F00001D26BD36BE4
:101DCA000001CC350001D13701E3D2810001D151A4
:101DDA000001D66FD0C0D1F00001D26BD36B0001E5
:101DEA00CF350001D13701E3D2810001D151000181
:101DFA00D56F0001D6510001D8B411D00001D551D8
:101E0A000001D65DD8B012D00001D65100080001F9
:101E1A00D5250001D16F180E0001D16507D0CEC0BB
:101E2A00CBF0CFC0CCF0D0C0CDF012000001D5511C
:101E3A000001D8B411D00001D6510001D55DD8B047
:101E4A0012D00001D55100080001D6250001D16F3A
:101E5A00180E0001D16507D0CBC0CBF0CCC0CCF0B6
:101E6A00CDC0CDF01200060E0001D46F0001CDAF37
:101E7A0002D00001D48F0001D0AF02D00001D48D6E
:101E8A000001CC8FFF0E0001CB17FF0E0001CC170B
:101E9A00000E0001CD170001CF8FFF0E0001CE17F3
:101EAA00FF0E0001CF17000E0001D0170001D55117
:101EBA000001D65DD8B025D00001D890CE37CF37F3
:101ECA00D0370001D5070001D6510001D519D8B481
:101EDA0011D00001D407D4C0D1F0070E0001D117E8
:101EEA00D8B408D0E9D70001D890CD33CC33CB335E
:101EFA000001D62B0001D5510001D619D8B42BD038
:101F0A00F2D70001D6510001D55DD8B024D0000126
:101F1A00D890CB37CC37CD370001D6070001D65140
:101F2A000001D519D8B411D00001D407D4C0D1F01A
:101F3A00070E0001D117D8B408D0E9D70001D8900C
:101F4A00D033CF33CE330001D52B0001D551000158
:101F5A00D619D8A4F3D70001D4AF12D0FF0E0001CE
:101F6A00CB1BFF0E0001CC1BFF0E0001CD1B010E87
:101F7A000001CB27000E0001CC23000E0001CD2367
:101F8A000001D4AD12D0FF0E0001CE1BFF0E0001DE
:101F9A00CF1BFF0E0001D01B010E0001CE27000E41
:101FAA000001CF23000E0001D023000E0001D46FE0
:101FBA000001CB510001CE270001CC510001CF23F3
:101FCA000001CD510001D0230001D0AF15D0FF0E82
:101FDA000001CE1BFF0E0001CF1BFF0E0001D01B1C
:101FEA00010E0001CE27000E0001CF23000E0001D2
:101FFA00D023010E0001D46FCEC013F0CFC014F06D
:10200A00D0C015F0D6C016F0D4C017F0FAEC12F012
:10201A0013C0CBF014C0CCF015C0CDF01200000EE6
:10202A000001606F000E0001616F000E0001626F17
:10203A00000E0001636F000E0001646F000E0001C4
:10204A00656F000E0001666F000E0001676F000EDB
:10205A000001686F000E0001726F000E0001736FBD
:10206A00000E0001746F000E0001756F000E000172
:10207A00766F000E0001776F000E0001786F000E78
:10208A000001796F000E00017A6F000E00018D6F5A
:10209A00000E00018E6F000E00018F6F000E00010E
:1020AA00906F000E0001916F000E0001926F000EFA
:1020BA000001936F000E0001946F000E0001956FEE
:1020CA00000E00017B6F000E00017C6F000E000104
:1020DA007D6F000E00017E6F000E00017F6F000E03
:1020EA000001806F000E0001816F000E0001826FF7
:1020FA00000E0001836F000E00019F6F000E0001A9
:10210A00A06F000E0001A16F000E0001A26F000E69
:10211A000001A36F000E0001A46F000E0001A56F5D
:10212A00000E0001A66F000E0001A76F000E00014D
:10213A00966F000E0001976F000E0001986F000E57
:10214A000001996F000E00019A6F000E00019B6F4B
:10215A00000E00019C6F000E00019D6F000E000131
:10216A009E6F000E0001696F000E00016A6F000E7B
:10217A0000016B6F000E00016C6F000E00016D6FA5
:10218A00000E00016E6F000E00016F6F000E00015D
:10219A00706F000E0001716F000E0001846F000E57
:1021AA000001856F000E0001866F000E0001876F27
:1021BA00000E0001886F000E0001896F000E0001F9
:1021CA008A6F000E00018B6F000E00018C6F000EEB
:1021DA000001DD6FC70E0001DD6501D005D076EC88
:1021EA0008F00001DD2BF6D772C069F073C06AF0FF
:1021FA0074C06BF075C06CF076C06DF077C06EF08D
:10220A0078C06FF079C070F07AC071F08DC084F038
:10221A008EC085F08FC086F090C087F091C088F09C
:10222A0092C089F093C08AF094C08BF095C08CF06C
:10223A00120034C038F0396A3A6A3334383601E366
:10224A00398038500001C66F0001C651D8A407D0A2
:10225A00000E326E000E336E000E346E120037C05E
:10226A0038F0396A3A6A3634383601E339803850F8
:10227A000001C76F0001C751D8A407D0000E326E03
:10228A00000E336E000E346E1200000E0001C36F92
:10229A00000E0001C46F000E0001C56F0001C75196
:1022AA00890F0001C65F34C0C7F037500001C71B51
:1022BA00800E0001C717338EFF0E3216FF0E33163B
:1022CA00000E3416368EFF0E3516FF0E3616000E29
:1022DA003716180E0001C26F0001D890C337C437F1
:1022EA00C5373550325C3650335837503458D8A039
:1022FA0008D03550325E3650335A3750345A0001BE
:10230A00C381D8903236333634360001C22FE4D72F
:10231A00C3C013F0C4C014F0C5C015F0C6C016F08F
:10232A00C7C017F0FAEC12F013C032F014C033F041
:10233A0015C034F0120015C017F0186A196A14345F
:10234A00173601E318801750216E2150D8A409D0FE
:10235A00000E136E000E146E000E156E000E166E31
:10236A001200170E176E13C018F014C019F015C01A
:10237A001AF017281B6E04D0D8901A321932183264
:10238A001B2EFAD718501C6E148EFF0E1316FF0E52
:10239A001416000E151613501D6E14501E6E15508D
:1023AA001F6E206A8E0E215E21AE16D02150800A41
:1023BA008F0FD8B009D0000E136E000E146E000EE7
:1023CA00156E000E166E1200D89020321F321E3281
:1023DA001D32213EF9D715D0170E21640FD0000EF9
:1023EA00136E000E146E000E156E000E166E12009D
:1023FA00D8901D361E361F36203621062150D8A405
:10240A00F7D71C50D8B408D0201E1F1E1E1E1D6CE4
:10241A00000E1E221F2220221DC013F01EC014F01F
:10242A001FC015F020C016F0120025C029F02A6A34
:10243A002B6A2434293601E32A8029502C6E2C5029
:10244A00D8A407D0000E236E000E246E000E256E4F
:10245A00120028C029F02A6A2B6A2734293601E398
:10246A002A802950316E3150D8A407D0000E236E2D
:10247A00000E246E000E256E120031507B0F2C26A2
:10248A0025C031F02850311A800E3116248E278E3D
:10249A00FF0E2616FF0E2716000E2816000E2D6EAA
:1024AA00000E2E6E000E2F6E070E306E23A006D081
:1024BA0026502D2627502E2228502F22D8902532FA
:1024CA0024322332D890263627362836302EEED7B5
:1024DA00090E306E23A006D026502D2627502E2214
:1024EA0028502F22D890253224322332D8902F32E6
:1024FA002E322D32302EEED72DC013F02EC014F00E
:10250A002FC015F02CC016F031C017F0FAEC12F0FB
:10251A0013C023F014C024F015C025F01200166E63
:10252A00800EC76E280EC66E000EC56E9D969E96CC
:10253A00770EC86EC580C5B0FED7165002EC15F0EE
:10254A0003EC16F0155002EC15F003EC16F0080E29
:10255A0002EC15F003EC16F0C584C5B4FED7C580AD
:10256A00C5B0FED7D20E02EC15F003EC16F0200E21
:10257A0002EC15F003EC16F00F0E02EC15F0C58A0A
:10258A00C588C5B8FED7C584C5B4FED7C580C5B051
:10259A00FED7D20E02EC15F003EC16F0220E02EC76
:1025AA0015F003EC16F0080E02EC15F0C58AC58882
:1025BA00C5B8FED7C584C5B4FED7C580C5B0FED799
:1025CA00D20E02EC15F003EC16F0230E02EC15F015
:1025DA0003EC16F0300E02EC15F0C58AC588C5B8B2
:1025EA00FED7C584C5A41200FDD71650D8B405D0AD
:1025FA00135014101510D8A40CD0000E136E000E30
:10260A00146E000E156E1200162AD8901532143266
:10261A001332000E1314186E000E1414196EFE0EE7
:10262A0015141A6E185019101A10D8B40CD0ECD709
:10263A00162A010E1326000E1422000E1522D89017
:10264A00153214321332000E1314186E000E1414BD
:10265A00196EFF0E15141A6E185019101A10D8B4E4
:10266A0006D0E6D71606D89013361436153614BE99
:10267A0003D0020E1660F6D716A0149ED890163212
:10268A00165015121750D8A4158E13C013F014C083
:10269A0014F015C015F012009EAA12009E9A5F0E41
:1026AA00CFEC15F0D8A012005F0ED9EC14F0310E61
:1026BA000101C719D8B43B2A300E0101C719D8B491
:1026CA003B06330E0101C719D8B43C2A320E010168
:1026DA00C719D8B43C06350E0101C719D8B43D2A2A
:1026EA00340E0101C719D8B43D06370E0101C719C6
:1026FA00D8B43E2A360E0101C719D8B43E06740E64
:10270A000101C719D8A404D03B683C683D683E68FB
:10271A00670E0101C719D8A408D07F0E3B6E7F0E41
:10272A003C6E7F0E3D6E7F0E3E6E620E0101C71932
:10273A00D8A41200010E3B6E010E3C6E010E3D6ED6
:10274A00010E3E6E120015AE16D013C019F014C059
:10275A001AF015C01BF0191E1A1E1B1E192A000E8C
:10276A001A221B22000E1924136E000E1A20146E50
:10277A00800E1B20156E18AE16D016C019F017C0A1
:10278A001AF018C01BF0191E1A1E1B1E192A000E59
:10279A001A221B22000E1924166E000E1A20176E1A
:1027AA00800E1B20186E000E131A000E141A800ECB
:1027BA00151A000E161A000E171A800E181A16503D
:1027CA00135C1750145818501558D8B002D0D89026
:1027DA001200D8801200000E1C6E1AAE06D0196CB8
:1027EA001A1ED8B01A2A010E1C6E18AE06D0176C23
:1027FA00181ED8B0182A010E1C1A000E1E6E000EE2
:10280A001D6E19501A10D8B41CD0010E1B6E04D0BC
:10281A00D89019361A361B2A1AAEFAD7D8901D360E
:10282A001E361950175C1A501858D8A005D01950DE
:10283A00175E1A50185A1D80D8901A3219321B2E58
:10284A00EDD71C50D8B404D01D6C1E1ED8B01E2A59
:10285A001DC017F01EC018F01200340EF66E2C0EB2
:10286A00F76E000EF86E00EEE4F010EE09F00900C3
:10287A00F5CFEEFFE550E150FAE1280EF66E2C0E88
:10288A00F76E000EF86E00EE3BF010EE0CF0090049
:10289A00F5CFEEFFE550E150FAE102EE00F0320E1C
:1028AA00EE6AE806FDE101EE00F0F90EEE6AE806CE
:1028BA00FDE100EE60F0620EEE6AE806FDE14C6AA8
:1028CA004B6A4A6A496A486A476A4D904D92000EB5
:1028DA00F86E00014DEF04F00600E9CF07F0EACFE9
:1028EA0008F0E1CF09F0E2CF0AF0D9CF0BF0DACF46
:1028FA000CF0F3CF0DF0F4CF0EF0F6CF0FF0F7CFC8
:10290A0010F0F8CF11F0F5CF12F00CEC16F051ECF4
:10291A0013F012C0F5FF11C0F8FF10C0F7FF0FC087
:10292A00F6FF0EC0F4FF0DC0F3FF0CC0DAFF0BC0B8
:10293A00D9FF0AC0E2FF09C0E1FF08C0EAFF07C0E9
:10294A00E9FF06C0FBFF05C0FAFF4D921100492AB4
:10295A0049503B18D8B4819449503C18D8B4819650
:10296A0049503D18D8B4819849503E18D8B4819A34
:10297A0049503F18D8A402D0819C05D04950D8A408
:10298A0002D0FC0E81123B50D8B481943C50D8B48A
:10299A0081963D50D8B481983E50D8B4819A3F5020
:1029AA00D8A41200819C1200026E000E046E000E62
:1029BA00036EC70E0324D96E010E0420DA6EF8ECFA
:1029CA0015F0DF6EC70E0324D96E010E0420DA6EED
:1029DA000250DE18D8A409D0C70E0324D96E010EFE
:1029EA000420DA6E000EDF6E03D0034A042AE1D710
:1029FA0003C042F004C043F01200146E14C0C9FFB1
:102A0A00C6BE1200C6500F0B080AD8B40CD0C65066
:102A1A000F0B0B0AD8B407D0C6889EA6FED7C7B438
:102A2A001200C7501200C6500F0B080AD8B405D0BE
:102A3A00C6500F0B0B0AD8A41200C7B0FED703EC7E
:102A4A0016F0C5501200156EC580C5B0FED7D20E5D
:102A5A0002EC15F003EC16F0155002EC15F003EC3D
:102A6A0016F0C582C5B2FED7D30E02EC15F003EC00
:102A7A0016F0DFEC15F0166EC58AC588C5B8FED704
:102A8A00C584C5B4FED716501200156EC580C5B0F0
:102A9A00FED7A60E02EC15F003EC16F0155002EC68
:102AAA0015F003EC16F0C582C5B2FED7A70E02ECEC
:102ABA0015F003EC16F0DFEC15F0166EC58AC58822
:102ACA00C5B8FED7C584C5B4FED716501200000E8D
:102ADA00226E20AE06D01F6C201ED8B0202A010E0E
:102AEA00226E1FC013F020C014F0156A8E0E166EE7
:102AFA0022C017F0FAEC12F013C01FF014C020F035
:102B0A0015C021F01200948E949C190EAF6E190E06
:102B1A00B06EAC9EAC9CAC8AAC98AC96AC84AC92D1
:102B2A00AC90AB8EAB9CAB9AAB88AB96AB94AB92AA
:102B3A00AB909D989D8A12000001C8510001C911ED
:102B4A000001CA11D8B409D0000E0001C81B000E3A
:102B5A000001C91B800E0001CA1BC8C0C8F0C9C049
:102B6A00C9F0CAC0CAF01200000E176E000E166E27
:102B7A000AD0100E156E940EE82EFED7152EFCD72D
:102B8A0000D0164A172A1350165C14501758D8B09A
:102B9A001200EFD7016E9EBA02D0D8901200F8EC5C
:102BAA0015F00118D8A404D00128AE6ED8801200FE
:102BBA00D8901200C6500F0B080AD8B404D0C650D9
:102BCA000F0B0B0AD8B4C586C7A0FED7C95012008E
:102BDA00A00EF26EC10ED56E030E936E030E8A6EB0
:102BEA0046C0D6FF1200ABA202D0AB98AB889EAA11
:102BFA00FED7AECF4AF09E9AAE501200C5CF13F060
:102C0A001F0E1316D8A4FAD7C7A41200F7D7F2A436
:102C1A001200F294ACEC14F046C0D6FF1200010187
:102C2A00010101050032000F00500D0A00CDCC3D14
:032C3A00CDCC3DC1
:020000040020DA
:08000000FFFFFFFFFFFFFFFF00
:020000040030CA
:0E000000240E1E1EFF8181FF0FC00FE00F4077
:00000001FF
