:040800000BEF04F006
:100808004D82FACF05F0FBCF06F02BED11F0EDEF9E
:1008180010F00041542B43574A41503D2242617425
:1008280043617665726E61222C22323364666431CC
:1008380062363462220D0A0041542B434950534515
:10084800525645523D312C343030300D0A00415457
:100858002B43574D4F44453D310D0A0041542B431E
:1008680049504D55583D310D0A0041542B434950CC
:1008780053454E443D302C006C696E6B20697320E3
:100888006E6F740041542B5253540D0A004F4B00A5
:01089800005F
:10089A0042EC12F0A1EC12F09A0E02013C6F390EF2
:1008AA0002013D6FC10E02013E6F000E02013F6F51
:1008BA00400E0201406FC00E0201416F000E02019C
:1008CA00426F000E0201436FC00E0201446F000E18
:1008DA000201396F000E02013A6FC00E02013B6F2E
:1008EA00000E01011B6FFE0E01011C6FC20E0101F9
:1008FA001D6F000E0101186FFE0E0101196F420EE5
:10090A0001011A6F000E0101006F800E0101016FD3
:10091A003F0E0101026F000E0101036F000E01017B
:10092A00046F000E0101056F000E0101066F000E33
:10093A000101076F000E0101086F000E0101156F1A
:10094A00800E0101166F3F0E0101176F000E0101A3
:10095A00406FFE0E0101416FC20E0101426F000E8F
:10096A0001013D6FFE0E01013E6F420E01013F6F14
:10097A00000E0101256F800E0101266F3F0E010155
:10098A00276F000E0101286F000E0101296F000E6A
:10099A0001012A6F000E01012B6F000E01012C6F5D
:1009AA00000E01012D6F000E01013A6F800E010148
:1009BA003B6F3F0E01013C6F000E0101656FFE0E99
:1009CA000101666FC20E0101676F000E0101626FBD
:1009DA00FE0E0101636F420E0101646F000E0101F8
:1009EA004A6F800E01014B6F3F0E01014C6F000EE2
:1009FA0001014D6F000E01014E6F000E01014F6F94
:100A0A00000E0101506F000E0101516F000E01012D
:100A1A00526F000E01015F6F800E0101606F3F0E81
:100A2A000101616F000E01018A6FFE0E01018B6FD9
:100A3A00C20E01018C6F000E0101876FFE0E0101CB
:100A4A00886F420E0101896F000E01016F6F800EDF
:100A5A000101706F3F0E0101716F000E0101726F8B
:100A6A00000E0101736F000E0101746F000E010187
:100A7A00756F000E0101766F000E0101776F000E8F
:100A8A000101846F800E0101856F3F0E0101866F9F
:100A9A00010E0201326F010E0201546FA40E02010F
:100AAA00546501D01CD0230E0201546102D0020108
:100ABA00322B54C23BF054C23CF002015451080F8D
:100ACA003E6E02015451020132253D6E000E146E33
:100ADA005A0E136E5BEC12F00201542BDFD7000E94
:100AEA000201456F000E0201466F400E0201476F78
:100AFA00000E0201486F800E0201496F3F0E02018B
:100B0A004A6FE1C032F0E2C033F0E3C034F03CC2D5
:100B1A001BF03DC21CF03EC21DF071EC12F01BC06E
:100B2A0026F01CC027F01DC028F0010E1A6E000E18
:100B3A00196E360E04EC12F00001DB6FDC6B370E17
:100B4A0004EC12F00001DD6F0001DD510001DB272A
:100B5A00000EDC23DBC0DCF00001DB6BDBC017F02E
:100B6A00DCC018F0ABEC10F017C01FF018C020F072
:100B7A0026EC12F01FC023F020C024F021C025F07B
:100B8A0035EC0DF023C02FF024C030F025C031F031
:100B9A00ABEC0EF02FC055F230C056F231C057F20E
:100BAA003CC223F03DC224F03EC225F055C226F0D5
:100BBA0056C227F057C228F035EC0DF023C03CF29C
:100BCA0024C03DF225C03EF23CC223F03DC224F0CF
:100BDA003EC225F09A0E266E390E276E410E286EF9
:100BEA0035EC0DF023C051F224C052F225C053F265
:100BFA00000E0001CF6F000E0001D06F000E000141
:100C0A00D16F51C2D2F052C2D3F053C2D4F0000E07
:100C1A000001D56F92EC0AF01EC123F01FC124F027
:100C2A0020C125F0000E266E390E276E440E286E5E
:100C3A0035EC0DF023C04BF224C04CF225C04DF226
:100C4A00E1C032F0E2C033F0E3C034F03FC21BF03F
:100C5A0040C21CF041C21DF071EC12F01BC026F01C
:100C6A001CC027F01DC028F0010E1A6E000E196E66
:100C7A00280EE2EC11F00001DB6FDC6B290EE2ECCE
:100C8A0011F00001DD6F0001DD510001DB27000ECC
:100C9A00DC23DBC0DCF00001DB6BDBC017F0DCC05F
:100CAA0018F0ABEC10F017C01FF018C020F026ECBB
:100CBA0012F01FC023F020C024F021C025F035EC2B
:100CCA000DF023C02FF024C030F025C031F0ABEC7A
:100CDA000EF02FC055F230C056F231C057F23FC263
:100CEA0023F040C224F041C225F055C226F056C274
:100CFA0027F057C228F035EC0DF023C03FF224C08C
:100D0A0040F225C041F23FC223F040C224F041C262
:100D1A0025F0000E266E400E276E400E286E35EC2A
:100D2A000DF023C051F224C052F225C053F2000E36
:100D3A000001CF6F000E0001D06F000E0001D16FCD
:100D4A0051C2D2F052C2D3F053C2D4F0010E000104
:100D5A00D56F92EC0AF043C133F244C134F245C173
:100D6A0035F2E1C032F0E2C033F0E3C034F042C2FF
:100D7A001BF043C21CF044C21DF071EC12F01BC000
:100D8A0026F01CC027F01DC028F0010E1A6E000EB6
:100D9A00196E2B0EE2EC11F00001DB6F2A0EE2EC69
:100DAA0011F00001DC6F0001DC510001DB25176E38
:100DBA00186A1836ABEC10F017C01FF018C020F0F4
:100DCA0026EC12F01FC023F020C024F021C025F029
:100DDA0035EC0DF023C02FF024C030F025C031F0DF
:100DEA00ABEC0EF02FC055F230C056F231C057F2BC
:100DFA0042C223F043C224F044C225F055C226F071
:100E0A0056C227F057C228F035EC0DF023C042F243
:100E1A0024C043F225C044F242C223F043C224F064
:100E2A0044C225F0000E266E000E276E400E286E74
:100E3A0035EC0DF023C051F224C052F225C053F212
:100E4A00000E0001CF6F000E0001D06F000E0001EE
:100E5A00D16F51C2D2F052C2D3F053C2D4F0020EB3
:100E6A000001D56F92EC0AF068C136F269C137F217
:100E7A006AC138F239C21BF03AC21CF03BC21DF0FB
:100E8A0071EC12F01BC026F01CC027F01DC028F020
:100E9A00010E1A6E000E196E2D0EE2EC11F0000111
:100EAA00DB6F2C0EE2EC11F00001DC6F0001DC516B
:100EBA000001DB25176E186A1836ABEC10F017C064
:100ECA001FF018C020F026EC12F01FC023F020C03B
:100EDA0024F021C025F035EC0DF023C02FF024C0FA
:100EEA0030F025C031F0E1C032F0E2C033F0E3C0A7
:100EFA0034F0ABEC0EF02FC039F230C03AF231C008
:100F0A003BF239C223F03AC224F03BC225F0000E6C
:100F1A00266E000E276E400E286E35EC0DF023C0AB
:100F2A0051F224C052F225C053F2000E0001CF6FD5
:100F3A00000E0001D06F000E0001D16F51C2D2F035
:100F4A0052C2D3F053C2D4F0030E0001D56F92EC13
:100F5A000AF08DC14EF28EC14FF28FC150F2000ECF
:100F6A00326E800E336E400E346E48C22FF049C284
:100F7A0030F04AC231F0ABEC0EF02FC0C6F030C0F0
:100F8A00C7F031C0C8F04EC2C3F04FC2C4F050C25D
:100F9A00C5F00BEC0EF0C3C01BF0C4C01CF0C5C0FA
:100FAA001DF071EC12F01BC026F01CC027F01DC00A
:100FBA0028F0000E0001C66F800E0001C76F400EB8
:100FCA000001C86F4BC2C3F04CC2C4F04DC2C5F099
:100FDA000BEC0EF0C3C023F0C4C024F0C5C025F04A
:100FEA0035EC0DF023C055F224C056F225C057F255
:100FFA0055C223F056C224F057C225F0000E326EB5
:10100A00000E336E400E346E45C22FF046C230F0E9
:10101A0047C231F0ABEC0EF02FC0C6F030C0C7F0BB
:10102A0031C0C8F036C2C3F037C2C4F038C2C5F006
:10103A000BEC0EF0C3C01BF0C4C01CF0C5C01DF001
:10104A0071EC12F01BC026F01CC027F01DC028F05E
:10105A0035EC0DF023C058F224C059F225C05AF2DB
:10106A00000E136E000E146E000E156E58C216F0A6
:10107A0059C217F05AC218F063EC10F0D8A009D080
:10108A00000E0201586F800E0201596F3F0E0201D5
:10109A005A6F58C213F059C214F05AC215F03BECF9
:1010AA000FF013503B6E000E326E800E336E400E00
:1010BA00346E48C22FF049C230F04AC231F0ABEC6C
:1010CA000EF02FC0C6F030C0C7F031C0C8F04EC213
:1010DA00C3F04FC2C4F050C2C5F00BEC0EF0C3C04F
:1010EA0026F0C4C027F0C5C028F0000E0001C66F64
:1010FA00800E0001C76F400E0001C86F4BC2C3F0DB
:10110A004CC2C4F04DC2C5F00BEC0EF0C3C023F0C4
:10111A00C4C024F0C5C025F035EC0DF023C055F24B
:10112A0024C056F225C057F255C223F056C224F005
:10113A0057C225F0000E326E000E336E400E346E2A
:10114A0045C22FF046C230F047C231F0ABEC0EF088
:10115A002FC0C6F030C0C7F031C0C8F033C2C3F0E8
:10116A0034C2C4F035C2C5F00BEC0EF0C3C01BF09C
:10117A00C4C01CF0C5C01DF071EC12F01BC026F0F3
:10118A001CC027F01DC028F035EC0DF023C058F222
:10119A0024C059F225C05AF2000E136E000E146EC6
:1011AA00000E156E58C216F059C217F05AC218F03E
:1011BA0063EC10F0D8A009D0000E0201586F800E1F
:1011CA000201596F3F0E02015A6F58C213F059C2F9
:1011DA0014F05AC215F03BEC0FF013503C6E000E9F
:1011EA00326E000E336E400E346E45C22FF046C288
:1011FA0030F047C231F0ABEC0EF02FC0C6F030C071
:10120A00C7F031C0C8F036C2C3F037C2C4F038C222
:10121A00C5F00BEC0EF0C3C026F0C4C027F0C5C061
:10122A0028F0000E0001C66F800E0001C76F400E45
:10123A000001C86F4BC2C3F04CC2C4F04DC2C5F026
:10124A000BEC0EF0C3C023F0C4C024F0C5C025F0D7
:10125A0035EC0DF023C055F224C056F225C057F2E2
:10126A0055C223F056C224F057C225F0000E326E42
:10127A00800E336E400E346E48C22FF049C230F0F1
:10128A004AC231F0ABEC0EF02FC0C6F030C0C7F046
:10129A0031C0C8F04EC2C3F04FC2C4F050C2C5F04C
:1012AA000BEC0EF0C3C01BF0C4C01CF0C5C01DF08F
:1012BA0071EC12F01BC026F01CC027F01DC028F0EC
:1012CA0035EC0DF023C058F224C059F225C05AF269
:1012DA00000E136E000E146E000E156E58C216F034
:1012EA0059C217F05AC218F063EC10F0D8A009D00E
:1012FA00000E0201586F800E0201596F3F0E020163
:10130A005A6F58C213F059C214F05AC215F03BEC86
:10131A000FF013503E6E000E326E000E336E400E0A
:10132A00346E45C22FF046C230F047C231F0ABEC02
:10133A000EF02FC0C6F030C0C7F031C0C8F033C2BB
:10134A00C3F034C2C4F035C2C5F00BEC0EF0C3C012
:10135A0026F0C4C027F0C5C028F0000E0001C66FF1
:10136A00800E0001C76F400E0001C86F4BC2C3F068
:10137A004CC2C4F04DC2C5F00BEC0EF0C3C023F052
:10138A00C4C024F0C5C025F035EC0DF023C055F2D9
:10139A0024C056F225C057F255C223F056C224F093
:1013AA0057C225F0000E326E800E336E400E346E38
:1013BA0048C22FF049C230F04AC231F0ABEC0EF00D
:1013CA002FC0C6F030C0C7F031C0C8F04EC2C3F05B
:1013DA004FC2C4F050C2C5F00BEC0EF0C3C026F0E9
:1013EA00C4C027F0C5C028F035EC0DF023C058F270
:1013FA0024C059F225C05AF2000E136E000E146E64
:10140A00000E156E58C216F059C217F05AC218F0DB
:10141A0063EC10F0D8A009D0000E0201586F800EBC
:10142A000201596F3F0E02015A6F58C213F059C296
:10143A0014F05AC215F03BEC0FF013503D6E9C0E9F
:10144A000001DB6FD70EE82EFED7DB2FFCD700F0AA
:10145A009C0E0001DB6FD70EE82EFED7DB2FFCD7E0
:10146A0000F09C0E0001DB6FD70EE82EFED7DB2FB3
:10147A00FCD700F09C0E0001DB6FD70EE82EFED7DA
:10148A00DB2FFCD700F09C0E0001DB6FD70EE82E95
:10149A00FED7DB2FFCD700F09C0E0001DB6FD70EC6
:1014AA00E82EFED7DB2FFCD700F09C0E0001DB6F85
:1014BA00D70EE82EFED7DB2FFCD700F09C0E0001DA
:1014CA00DB6FD70EE82EFED7DB2FFCD700F09C0E81
:1014DA000001DB6FD70EE82EFED7DB2FFCD700F01A
:1014EA009C0E0001DB6FD70EE82EFED7DB2FFCD750
:1014FA0000F09C0E0001DB6FD70EE82EFED7DB2F23
:10150A00FCD700F09C0E0001DB6FD70EE82EFED749
:10151A00DB2FFCD700F074EF05F0D2C01BF0D3C06C
:10152A001CF0D4C01DF071EC12F01BC023F01CC0DB
:10153A0024F01DC025F0CFC026F0D0C027F0D1C0BE
:10154A0028F035EC0DF00001D551250D090EF326D2
:10155A00000EF422000EF324D96E010EF420DA6E86
:10156A0023C0DEFF24C0DEFF25C0DEFF0001D55107
:10157A00250D090EF326000EF422000EF324D96E6F
:10158A00010EF420DA6EDECF26F0DECF27F0DDCFB3
:10159A0028F00001D551250D120EF326000EF42273
:1015AA00000EF324D96E010EF420DA6EDECF1BF0A2
:1015BA00DECF1CF0DDCF1DF071EC12F01BC023F062
:1015CA001CC024F01DC025F035EC0DF023C0C3F07B
:1015DA0024C0C4F025C0C5F00001D551250D150E53
:1015EA00F326000EF422000EF324D96E010EF42025
:1015FA00DA6EDECFC6F0DECFC7F0DDCFC8F00BEC77
:10160A000EF00001D551250D0C0EF326000EF42222
:10161A00000EF324D96E010EF420DA6EC3C0DEFF89
:10162A00C4C0DEFFC5C0DEFF0001D551250D090E7D
:10163A00F326000EF422000EF324D96E010EF420D4
:10164A00DA6E0001D551250D120EF326000EF42292
:10165A00000EF324E16E010EF420E26EDECFE6FF07
:10166A00DECFE6FFDECFE6FF0001D551250D210EC4
:10167A00F326000EF422000EF324D96E010EF42094
:10168A00DA6EDE50DE10D8A467D00001D551250DE0
:10169A00230EF326000EF422000EF324D96E010E57
:1016AA00F420DA6EDE50DE10D8A456D00001D551EF
:1016BA00250D0F0EF326000EF422000EF324D96E28
:1016CA00010EF420DA6EDECF23F0DECF24F0DDCF78
:1016DA0025F00001D551250D150EF326000EF42232
:1016EA00000EF324D96E010EF420DA6EDECF32F04A
:1016FA00DECF33F0DDCF34F00001D551250D090ED0
:10170A00F326000EF422000EF324D96E010EF42003
:10171A00DA6EDECF2FF0DECF30F0DDCF31F0ABEC7A
:10172A000EF02FC026F030C027F031C028F035EC7B
:10173A000DF00001D551250D0F0EF326000EF422EF
:10174A00000EF324D96E010EF420DA6E23C0DEFFF8
:10175A0024C0DEFF25C0DEFF0001D551250D0F0E86
:10176A00F326000EF422000EF324D96E010EF420A3
:10177A00DA6EDECF32F0DECF33F0DDCF34F00001A7
:10178A00D551250D030EF326000EF422000EF32484
:10179A00D96E010EF420DA6EDECF2FF0DECF30F0F4
:1017AA00DDCF31F0ABEC0EF02FC026F030C027F0C1
:1017BA0031C028F00001D551250D090EF326000E7F
:1017CA00F422000EF324D96E010EF420DA6EDECF75
:1017DA0032F0DECF33F0DDCF34F00001D551250DE4
:1017EA00000EF324D96E010EF420DA6EDECF2FF04C
:1017FA00DECF30F0DDCF31F0ABEC0EF02FC023F0AE
:10180A0030C024F031C025F035EC0DF023C0D8F0FB
:10181A0024C0D9F025C0DAF0D8C023F0D9C024F00A
:10182A00DAC025F00001D551250D0C0EF326000E65
:10183A00F422000EF324D96E010EF420DA6EDECF04
:10184A0032F0DECF33F0DDCF34F00001D551250D73
:10185A00060EF326000EF422000EF324D96E010EB2
:10186A00F420DA6EDECF2FF0DECF30F0DDCF31F0AC
:10187A00ABEC0EF02FC026F030C027F031C028F0B4
:10188A0035EC0DF00001D551250D1E0EF326000E84
:10189A00F422000EF324D96E010EF420DA6E23C06E
:1018AA00DEFF24C0DEFF25C0DEFF0001D551250D75
:1018BA001E0EF326000EF422000EF324D96E010E3A
:1018CA00F420DA6EDECF13F0DECF14F0DDCF15F0A0
:1018DA000001D551250D180EF326000EF422000E34
:1018EA00F324D96E010EF420DA6EDECF16F0DECFC5
:1018FA0017F0DDCF18F063EC10F0D8A032D0000159
:10190A00D551250D210EF326000EF422000EF324E4
:10191A00D96E010EF420DA6E010EDE6E000EDD6E57
:10192A000001D551250D180EF326000EF422000EE3
:10193A00F324D96E010EF420DA6E0001D551250D7B
:10194A001E0EF326000EF422000EF324E16E010EA1
:10195A00F420E26EDECFE6FFDECFE6FFDECFE6FF63
:10196A0011D00001D551250D210EF326000EF422C7
:10197A00000EF324D96E010EF420DA6E000EDE6E2C
:10198A00000EDD6E0001D551250D1B0EF326000E4B
:10199A00F422000EF324D96E010EF420DA6EDECFA3
:1019AA0013F0DECF14F0DDCF15F00001D551250D6F
:1019BA001E0EF326000EF422000EF324D96E010E39
:1019CA00F420DA6EDECF16F0DECF17F0DDCF18F096
:1019DA0063EC10F0D8A032D00001D551250D230EAA
:1019EA00F326000EF422000EF324D96E010EF42021
:1019FA00DA6E010EDE6E000EDD6E0001D551250D88
:101A0A001B0EF326000EF422000EF324D96E010EEB
:101A1A00F420DA6E0001D551250D1E0EF326000EB4
:101A2A00F422000EF324E16E010EF420E26EDECF02
:101A3A00E6FFDECFE6FFDECFE6FF12000001D5515A
:101A4A00250D230EF326000EF422000EF324D96E80
:101A5A00010EF420DA6E000EDE6E000EDD6E12004C
:101A6A0025C029F02A6A2B6A2434293601E32A8000
:101A7A0029502E6E28C029F02A6A2B6A2734293663
:101A8A0001E32A8029502D6E2E50D8B40BD02D5048
:101A9A002E5CD8B00ED02E5000082D24296E180EB8
:101AAA00296407D026C023F027C024F028C025F0D7
:101ABA0012002D50D8B40BD02E502D5CD8B00ED0B9
:101ACA002D5000082E24296E180E296407D023C031
:101ADA0023F024C024F025C025F01200060E2C6E37
:101AEA0025BE2C8E28BE2C8C248EFF0E2316FF0EAC
:101AFA002416000E2516278EFF0E2616FF0E271611
:101B0A00000E28162D502E5CD8B01BD0D890263641
:101B1A00273628362D062E502D18D8B40DD02C066F
:101B2A002CC029F0070E2916D8B406D0EFD7D890C2
:101B3A002532243223322E2A2D502E18D8B41FD003
:101B4A00F6D72E502D5CD8B01AD0D890233624362A
:101B5A0025362E062E502D18D8B40DD02C062CC0A2
:101B6A0029F0070E2916D8B406D0EFD7D890283214
:101B7A00273226322D2A2D502E18D8A4F7D72CAE6C
:101B8A000CD0FF0E231AFF0E241AFF0E251A010E7F
:101B9A002326000E2422000E25222CAC0CD0FF0E88
:101BAA00261AFF0E271AFF0E281A010E2626000EE5
:101BBA002722000E2822000E2C6E2350262624509F
:101BCA0027222550282228AE0ED0FF0E261AFF0EF5
:101BDA00271AFF0E281A010E2626000E2722000EAB
:101BEA002822010E2C6E26C013F027C014F028C03C
:101BFA0015F02EC016F02CC017F0B5EC0FF013C07C
:101C0A0023F014C024F015C025F01200C5C038F026
:101C1A00396A3A6A0001C435383601E339803850E6
:101C2A000001CD6F0001CD51D8A40AD0000E0001E9
:101C3A00C36F000E0001C46F000E0001C56F1200D1
:101C4A00C8C038F0396A3A6A0001C735383601E344
:101C5A00398038500001CE6F0001CE51D8A40AD085
:101C6A00000E0001C36F000E0001C46F000E0001D8
:101C7A00C56F1200000E0001CA6F000E0001CB6F83
:101C8A00000E0001CC6F0001CE51890F0001CD5F1B
:101C9A00C5C0CEF00001C8510001CE1B800E000164
:101CAA00CE170001C48FFF0E0001C317FF0E0001FB
:101CBA00C417000E0001C5170001C78FFF0E0001EF
:101CCA00C617FF0E0001C717000E0001C817180E2D
:101CDA000001C96F0001D890CA37CB37CC37000151
:101CEA00C6510001C35D0001C7510001C45900017A
:101CFA00C8510001C559D8A00ED00001C651000133
:101D0A00C35F0001C7510001C45B0001C851000153
:101D1A00C55B0001CA810001D890C337C437C537F3
:101D2A000001C92FD7D7CAC013F0CBC014F0CCC05A
:101D3A0015F0CDC016F0CEC017F0B5EC0FF013C0F9
:101D4A00C3F014C0C4F015C0C5F0120031C035F09C
:101D5A00366A376A3034353601E336803550000149
:101D6A00BD6F0001BD51D8A407D0000E2F6E000E22
:101D7A00306E000E316E120034C035F0366A376AA2
:101D8A003334353601E3368035500001C26F000125
:101D9A00C251D8A407D0000E2F6E000E306E000E6E
:101DAA00316E12000001C2517B0F0001BD2731C004
:101DBA00C2F034500001C21B800E0001C217308EDF
:101DCA00338EFF0E3216FF0E3316000E3416000E37
:101DDA000001BE6F000E0001BF6F000E0001C06F50
:101DEA00070E0001C16F2FA009D032500001BE2793
:101DFA0033500001BF2334500001C023D890313240
:101E0A0030322F32D8903236333634360001C12F71
:101E1A00EAD7090E0001C16F2FA009D03250000184
:101E2A00BE2733500001BF2334500001C023D8908D
:101E3A00313230322F320001D890C033BF33BE3333
:101E4A000001C12FE9D7BEC013F0BFC014F0C0C053
:101E5A0015F0BDC016F0C2C017F0B5EC0FF013C0F4
:101E6A002FF014C030F015C031F0120015C017F071
:101E7A00186A196A1434173601E318801750216E4C
:101E8A002150D8A409D0000E136E000E146E000E55
:101E9A00156E000E166E1200170E176E13C018F08C
:101EAA0014C019F015C01AF017281B6E04D0D89068
:101EBA001A32193218321B2EFAD718501C6E148E89
:101ECA00FF0E1316FF0E1416000E151613501D6E74
:101EDA0014501E6E15501F6E206A8E0E215E21AEA2
:101EEA0016D02150800A8F0FD8B009D0000E136E79
:101EFA00000E146E000E156E000E166E1200D890AB
:101F0A0020321F321E321D32213EF9D715D0170E4C
:101F1A0021640FD0000E136E000E146E000E156EA3
:101F2A00000E166E1200D8901D361E361F36203649
:101F3A0021062150D8A4F7D71C50D8B408D0201EA7
:101F4A001F1E1E1E1D6C000E1E221F2220221DC0D7
:101F5A0013F01EC014F01FC015F020C016F01200B6
:101F6A001650D8B405D0135014101510D8A40CD09C
:101F7A00000E136E000E146E000E156E1200162A55
:101F8A00D890153214321332000E1314186E000E44
:101F9A001414196EFE0E15141A6E185019101A1010
:101FAA00D8B40CD0ECD7162A010E1326000E142230
:101FBA00000E1522D890153214321332000E131463
:101FCA00186E000E1414196EFF0E15141A6E18509E
:101FDA0019101A10D8B406D0E6D71606D8901336B8
:101FEA001436153614BE03D0020E1660F6D716A0A4
:101FFA00149ED8901632165015121750D8A4158E62
:10200A0013C013F014C014F015C015F012009EAAE4
:10201A0012009E9A5F0E83EC12F0D8A012005F0E97
:10202A0093EC11F0310E0101B819D8B43B2A300EE5
:10203A000101B819D8B43B06330E0101B819D8B456
:10204A003C2A320E0101B819D8B43C06350E0101FA
:10205A00B819D8B43D2A340E0101B819D8B43D06CE
:10206A00370E0101B819D8B43E2A360E0101B81943
:10207A00D8B43E06740E0101B819D8A404D03B683E
:10208A003C683D683E68670E0101B819D8A408D0BB
:10209A007F0E3B6E7F0E3C6E7F0E3D6E7F0E3E6E58
:1020AA00620E0101B819D8A41200010E3B6E010E8E
:1020BA003C6E010E3D6E010E3E6E120015AE16D03C
:1020CA0013C019F014C01AF015C01BF0191E1A1EFD
:1020DA001B1E192A000E1A221B22000E1924136E27
:1020EA00000E1A20146E800E1B20156E18AE16D024
:1020FA0016C019F017C01AF018C01BF0191E1A1EC4
:10210A001B1E192A000E1A221B22000E1924166EF3
:10211A00000E1A20176E800E1B20186E000E131A5E
:10212A00000E141A800E151A000E161A000E171A2F
:10213A00800E181A1650135C175014581850155858
:10214A00D8B002D0D8901200D8801200000E1C6EAF
:10215A001AAE06D0196C1A1ED8B01A2A010E1C6EB5
:10216A0018AE06D0176C181ED8B0182A010E1C1A01
:10217A00000E1E6E000E1D6E19501A10D8B41CD017
:10218A00010E1B6E04D0D89019361A361B2A1AAEC5
:10219A00FAD7D8901D361E361950175C1A5018589F
:1021AA00D8A005D01950175E1A50185A1D80D89019
:1021BA001A3219321B2EEDD71C50D8B404D01D6C1C
:1021CA001E1ED8B01E2A1DC017F01EC018F012001D
:1021DA009D0EF66E250EF76E000EF86E00EEDEF01E
:1021EA0010EE08F00900F5CFEEFFE550E150FAE1F4
:1021FA00900EF66E250EF76E000EF86E00EE3BF0AE
:10220A0010EE0DF00900F5CFEEFFE550E150FAE1CE
:10221A0002EE00F0320EEE6AE806FDE101EE00F091
:10222A00FE0EEE6AE806FDE100EE60F05D0EEE6A73
:10223A00E806FDE14C6A4B6A4A6A496A486A4D9067
:10224A004D92000EF86E00014DEF04F00600E9CF42
:10225A0007F0EACF08F0E1CF09F0E2CF0AF0D9CFD0
:10226A000BF0DACF0CF0F3CF0DF0F4CF0EF0F6CF7F
:10227A000FF0F7CF10F0F8CF11F0F5CF12F0C0EC55
:10228A0012F00CEC10F012C0F5FF11C0F8FF10C0EC
:10229A00F7FF0FC0F6FF0EC0F4FF0DC0F3FF0CC02E
:1022AA00DAFF0BC0D9FF0AC0E2FF09C0E1FF08C08C
:1022BA00EAFF07C0E9FF06C0FBFF05C0FAFF4D921F
:1022CA0011004A2A4A503B18D8B481944A503C1803
:1022DA00D8B481964A503D18D8B481984A503E18CD
:1022EA00D8B4819A4A503F18D8A402D0819C05D00C
:1022FA004A50D8A402D0FC0E81123B50D8B4819423
:10230A003C50D8B481963D50D8B481983E50D8B448
:10231A00819A3F50D8A41200819C1200026E000ECE
:10232A00046E000E036EB80E0324D96E010E04204B
:10233A00DA6EACEC12F0DF6EB80E0324D96E010E21
:10234A000420DA6E0250DE18D8A409D0B80E03248D
:10235A00D96E010E0420DA6E000EDF6E03D0034A36
:10236A00042AE1D703C045F004C046F01200146EF7
:10237A0014C0C9FFC6BE1200C6500F0B080AD8B453
:10238A000CD0C6500F0B0B0AD8B407D0C6889EA62D
:10239A00FED7C7B41200C7501200C6500F0B080A66
:1023AA00D8B405D0C6500F0B0B0AD8A41200C7B078
:1023BA00FED7B7EC12F0C5501200156EC580C5B035
:1023CA00FED7D20EBCEC11F0B7EC12F01550BCECF3
:1023DA0011F0B7EC12F0C582C5B2FED7D30EBCEC31
:1023EA0011F0B7EC12F093EC12F0166EC58AC5889C
:1023FA00C5B8FED7C584C5B4FED716501200156EEF
:10240A00C580C5B0FED7A60EBCEC11F0B7EC12F031
:10241A001550BCEC11F0B7EC12F0C582C5B2FED76C
:10242A00A70EBCEC11F0B7EC12F093EC12F0166E9A
:10243A00C58AC588C5B8FED7C584C5B4FED71650A7
:10244A001200000E226E20AE06D01F6C201ED8B0DD
:10245A00202A010E226E1FC013F020C014F0156A44
:10246A008E0E166E22C017F0B5EC0FF013C01FF0D7
:10247A0014C020F015C021F01200948E949C190EFD
:10248A00AF6E190EB06EAC9EAC9CAC8AAC98AC9692
:10249A00AC84AC92AC90AB8EAB9CAB9AAB88AB964F
:1024AA00AB94AB92AB909D989D8A1200000E176E6A
:1024BA00000E166E0AD0100E156E940EE82EFED778
:1024CA00152EFCD700D0164A172A1350165C145042
:1024DA001758D8B01200EFD71B501C101D10D8B4D3
:1024EA0006D0000E1B1A000E1C1A800E1D1A1BC0E5
:1024FA001BF01CC01CF01DC01DF01200016E9EBA1C
:10250A0002D0D8901200ACEC12F00118D8A404D072
:10251A000128AE6ED8801200D8901200C6500F0B58
:10252A00080AD8B404D0C6500F0B0B0AD8B4C58613
:10253A00C7A0FED7C9501200A00EF26EC10ED56E0A
:10254A00030E936E030E8A6E47C0D6FF1200ABA22B
:10255A0002D0AB98AB889EAAFED7AECF4BF09E9A1C
:10256A00AE501200C5CF13F01F0E1316D8A4FAD717
:10257A00C7A41200F7D7F2A41200F29466EC11F085
:10258A0047C0D6FF12000101010101CDCC3D050073
:0B259A003200500D0A00CDCC3D0F00B8
:020000040020DA
:08000000FFFFFFFFFFFFFFFF00
:020000040030CA
:0E000000240E1E1EFF8181FF0FC00FE00F4077
:00000001FF
